:020000020000FC
:0200000004C03A
:1000080026C08FEF8DBF88E08EBFAFEFA4B9AFEFEA
:10001800A7B9AA27AAB9AFEFABB91CE0109369003A
:1000280012E01DBB7894AA2719B115FF25C02AD064
:10003800A5B980E49FE104D0A395A031A1F3F4CF42
:1000480079EF7A950000E9F70197D1F708958F9332
:100058009F938FB78F9312E01CBB80E59927F0DF41
:100068001CB311FFF4CF439546FD442748B98F913F
:100078008FBF8F919F911895F894B0E0BDBB12E0A7
:100088001CBBD6CF1CE01093690012E01DBB10E02A
:060098001CBB78940895E2
:00000001FF
