:020000020000FC
:0200000004C03A
:100008001EC044271FEF1DBF18E01DBF0027AFEF1C
:10001800A4B9AFEFA7B9AA27AAB9AFEFABB91CE04B
:100028001093690012E01DBB789419B115FF1FC029
:1000380024D045B92FD0439544FD4427F6CF8F935C
:100048009F938FB78F9312E01CBB20D01CB3123044
:1000580029F48F918FBF9F918F91F1CF039506FD62
:10006800002708B98F918FBF9F918F911895F894A9
:10007800B0E0BDBB12E01CBBDCCF1CE010936900F4
:1000880012E01DBB10E01CBB7894089585E090E059
:1000980005D0089584EF91E001D0089510E103D0D0
:1000A8000197E1F7089503D01A95E9F7089577EFD6
:0A00B8007A950000E9F700000895B2
:00000001FF
