:020000020000FC
:0200000004C03A
:1000080029C044271FEF1DBF18E01DBF88E893E1F2
:10001800CC27AFEFA4B91CE01093690012E01DBB18
:100028007894332735B9CF3F19F0CF3061F0F9CF45
:1000380031E035B988E893E12CD0CF3021F033276F
:1000480035B9CC27EECF3FE035B984EF91E021D028
:10005800CFEFEECF1F936F936FB76F9312E01CBB78
:1000680014D01CB3123009F4F9CFC03011F4CFEF1B
:1000780003C081E09927CFE06F916FBF6F911F9107
:10008800189588E893E105D0089585E090E001D0BF
:10009800089510E103D00197E1F7089503D01A9568
:1000A800E9F7089577EF7A950000E9F700000895D9
:00000001FF
