:020000020000FC
:020000002AC014
:1000540047C08FEF8DBF88E08EBF25E078948FEF87
:100064008AB988278FD084E690E0E1D0BAD011E431
:1000740010937C001FE810937A0025E0B2D088EE3C
:1000840093E0D5D010917A00106410937A00529FB7
:10009400E02DF12D629FF00DDF2FD695D69504E665
:1000A400E09FC12DF370F09FC00DC695C6958D2FAE
:1000B4001DD08FE083230E94FF008EE20E94FF0088
:1000C4008C2F14D080EF832386958695869586950C
:1000D4001FD08FE083231CD088EE93E0A8D0CDCF2F
:1000E40050917800609179006BB918954F9320E096
:1000F40030E048E0881F331F221F35300CF03D5F8D
:1001040025300CF02D5F4A958894A1F74F910895FE
:10011400803021F480E30E94FF0033C0813021F459
:1001240081E30E94FF002DC0823021F482E30E940B
:10013400FF0027C0833021F483E30E94FF0021C025
:10014400843021F484E30E94FF001BC0853021F435
:1001540085E30E94FF0015C0863021F486E30E94E7
:10016400FF000FC0873021F487E30E94FF0009C01D
:10017400883021F488E30E94FF0003C089E30E94D1
:10018400FF00089588EC90E052D080E38BB95B9A2D
:10019400000000005B988AEF90E055D080E38BB9B3
:1001A4005B9A000000005B988AEF90E04CD080E3FB
:1001B4008BB95B9A000000005B988AEF90E043D013
:1001C40080E28BB95B9A000000005B988AEF90E0B4
:1001D4003AD088E20CD08CE00AD003D086E007D075
:1001E400089581E004D085E090E021D008955A98E4
:1001F4000AD08AEF90E027D008955A9A04D08AEF63
:1002040090E021D008958F9399B19F70807F890FDA
:100214008BB95B9A000000005B988F918295807F78
:10022400890F8BB95B9A000000005B9808958F9347
:100234009F9387EE93E007D09F918F910000000079
:100244000197A9F7089501970E942A01E1F70895FB
:08025400000000000000089505
:00000001FF
