:020000020000FC
:1000000007C0081C3044586C8094A8BCD0E4F8F8B1
:100010003327789401E000936F0009E0009381009A
:1000200001E800938000E2E0F0E0369634913093EE
:1000300088002FEF24B900270AB90FEF0BB919B1C7
:1000400013FF03C014FF0BC0FACF84E690E011D079
:100050003491383FA1F3319630938800F0CF84E695
:1000600090E007D03491383051F3319730938800C5
:10007000E6CF00E103D00197E1F7089503D00A9598
:10008000E9F7089577EF7A950000E9F70000089501
:00000001FF
