:020000020000FC
:1000000007C0081C3044586C8094A8BCD0E4F8F8B1
:100010003327789401E000936F0009E0009381009A
:1000200001E800938000E2E0F0E031962FEF24B980
:1000300000270AB90FEF0BB919B113FF03C014FF62
:100040000BC0FACF383FC1F334913196309388001A
:1000500084E690E00BD0F0CF383071F334913197D3
:100060003093880084E690E001D0E6CF00E103D031
:100070000197E1F7089503D00A95E9F7089577EF1E
:0A0080007A950000E9F700000895EA
:00000001FF
