:100000000C9460000C94DB020C94DB020C94DB0279
:100010000C94DB020C94DB020C94DB020C94DB02EC
:100020000C94DB020C94DB020C94DB020C94DB02DC
:100030000C94DB020C94DB020C94DB020C94DB02CC
:100040000C94DB020C94DB020C94DB020C94DB02BC
:100050000C94DB020C94DB020C94DB020C94DB02AC
:100060000C94DB020C94DB020C94DB020C94DB029C
:100070000C94DB020C94DB020C94DB020C94DB028C
:100080000C94DB020C94DB020C94DB020C94DB027C
:100090000C94DB020C94DB020C94DB020C94DB026C
:1000A0000C94DB020C94DB020C94DB020C94DB025C
:1000B0000C94DB02010001200005C4012001228014
:1000C00011241FBECFEFD8E0DEBFCDBFE4EBF0E0E0
:1000D00040E017C0B591A59135912591059107FD97
:1000E0000CC095918591EF01F92FE82F05900D92A5
:1000F000A217B307D9F7FE0104C01D92A217B307D8
:10010000E1F7E03CF40731F70E9421020C94B402BD
:04011000F894FFCF91
:10011400CF93DF93EB018230E9F018F4813031F0B2
:100124004DC0833031F18430C9F148C06EEF83E0B3
:100134000E948A0281E00E946502C82FD0E0C09527
:10014400D095C07FDD27D295C295CF70CD27DF70C3
:10015400CD2734C06DEF83E00E948A0281E00E94C3
:10016400650290E080959095807F9927C82BD92BC4
:1001740025C06BEF83E00E948A0281E00E94650241
:1001840090E080959095807F992782959295907FB5
:100194009827807F9827C82BD92B10C067EF83E05E
:1001A4000E948A0281E00E94650290E08095909509
:1001B400807F9927982F8827C82BD92BCE01DF91D0
:0401C400CF9108953A
:1001C800CF93DF93C82F82E00E946502D82FDF709B
:1001D8006C2F607F6D2B82E00E948A0282E00E9471
:1001E8006502682F686082E00E948A0285E08A952D
:1001F800F1F7000082E00E946502682F677F82E0C5
:100208000E948A0287EC90E00197F1F700C0000095
:1002180090E1C99FB00111246D2B82E00E948A02EF
:1002280082E00E946502682F686082E00E948A026C
:1002380085E08A95F1F7000082E00E946502682F48
:0E024800677F82E00E948A02DF91CF910895C5
:100256002FEF83EC99E0215080409040E1F700C0F9
:10026600000080E30E94E4008FE19EE40197F1F72D
:1002760000C0000080E30E94E4008FE193E0019754
:10028600F1F700C0000080E30E94E4008FE193E0F4
:100296000197F1F700C0000080E20E94E4008FE1C0
:1002A60093E00197F1F700C0000088E20E943B024C
:1002B6008CE00E943B020E94BF0286E00E943B0245
:0202C600089599
:1002C800CF93DF93ECEBF0E024EAA9EBB0E0CBEBC3
:1002D800D0E034E844E9208390819923ECF79C919D
:1002E800987F983011F09031B1F7888330839081EE
:1002F8009923ECF79C91987F903211F0983529F466
:100308004083908194FDFDCFE6CFDF91CF91089592
:1003180094EA9093BC00ECEBF0E090819923ECF721
:100328009091B900987F983011F09031A1F48093A2
:10033800BB0084E88093BC00ECEBF0E0808188236C
:10034800ECF79091B900987F983139F081E09034BA
:0E03580029F480E0089581E0089580E0089582
:100366000E94D2022FEF81EE94E02150804090400F
:10037600E1F700C0000060EF87E00E948A0260E0BB
:1003860086E00E948A026FE083E00E948A020E9451
:100396002B012FEF81EE94E0215080409040E1F751
:0A03A60000C000000E94BF0208958D
:1003B000809120019091210181309105C9F404C000
:1003C0008130910559F402C020E030E0220F331F44
:1003D000F901E050FF4F80819181089596958795AE
:1003E0002F5F3F4F2031310559F780E090E00895AD
:0A03F0009695879521E030E0E3CFF9
:1003FA00CF93DF930E949C02EC012FEF89EF90E0EC
:10040A00215080409040E1F700C000000E949C0209
:10041A008C239D232091200130912101821793077B
:10042A0041F028273927822393239093210180932F
:08043A002001DF91CF9108952C
:100442000E94B3010E94FD0180912001909121013F
:10045200892B31F00E94BF020E94D8010E945002F3
:100462002FEF80E792E0215080409040E1F700C0FA
:040472000000E8CFCF
:10047600CF93C82F82E00E946502682F6B7F82E0CF
:100486000E948A028C2F0E94E40087EC90E001977C
:0A049600F1F700C00000CF910895B7
:1004A000CF93C82F82E00E946502682F646082E0CB
:1004B0000E948A028C2F0E94E40087EC90E0019752
:0A04C000F1F700C00000CF9108958D
:1004CA00CF93C82F80E40E9464018C2F0E94780287
:1004DA0081E40E94D8020E94A902C82F0E94C90280
:0604EA008C2FCF91089554
:1004F0008093BB0084E88093BC00ECEBF0E080814B
:100500008823ECF79091B900987F81E0983209F444
:0405100080E00895EA
:10051400CF93DF93D82FC62F80E40E9464018D2FE0
:100524000E9478028C2F0E9478020E94C902DF91F7
:04053400CF910895C6
:10053800CF93C1E080E090E0BC018C2F0E948A003C
:0A054800CF5FC530C9F7CF910895C9
:1005520084E88093BC00ECEBF0E080818823ECF728
:060562008091BB0008952A
:10056800EC010E94E0020E94DF02CE010E94E1023B
:06057800CE010E94DD022D
:10057E0081E00E943B028FE39FE10197F1F700C0FB
:04058E0000000895CC
:1005920084E98093BC00ECEBF0E0808184FDFDCF28
:0205A2000895BA
:0C05A4001092B90088E98093B800089517
:0605B0000E948C01089579
:0405B6000C940000A1
:0405BA000E94880013
:0205BE0008959E
:0205C00008959C
:0205C20008959A
:1005C4002A0030002300440037003800390043007B
:1005D400340035003600420031003200330041005F
:00000001FF
