:020000020000FC
:020000002AC014
:1000540047C08FEF8DBF88E08EBF25E078948FEF87
:100064008AB9882786D084E690E0D8D0B1D011E44C
:1000740010937C001FE810937A0025E0A9D088EE45
:1000840093E0CCD010917A00106410937A00529FC0
:10009400E02DF12D629FF00DDF2FD695D69504E665
:1000A400E09FC12DF370F09F8894179407941794E0
:1000B40007948894C695C6958894C00D8D2F16D044
:1000C4008A2F0E9481008EE20E94F6008C2F0ED0AF
:1000D400812F15D08A2F13D088EE93E09FD0CDCFF7
:1000E40050917800609179006BB918951127AA276F
:1000F4008A3018F08A501395FBCFA82F08958030CA
:1001040021F480E30E94F60033C0813021F481E3BE
:100114000E94F6002DC0823021F482E30E94F60092
:1001240027C0833021F483E30E94F60021C0843089
:1001340021F484E30E94F6001BC0853021F485E39A
:100144000E94F60015C0863021F486E30E94F60072
:100154000FC0873021F487E30E94F60009C088307D
:1001640021F488E30E94F60003C089E30E94F600AC
:10017400089588EC90E052D080E38BB95B9A00003C
:1001840000005B988AEF90E055D080E38BB95B9ACE
:10019400000000005B988AEF90E04CD080E38BB9BC
:1001A4005B9A000000005B988AEF90E043D080E205
:1001B4008BB95B9A000000005B988AEF90E03AD01C
:1001C40088E20CD08CE00AD003D086E007D00895F2
:1001D40081E004D085E090E021D008955A980AD0B7
:1001E4008AEF90E027D008955A9A04D08AEF90E0DD
:1001F40021D008958F9399B19F70807F890F8BB917
:100204005B9A000000005B988F918295807F890F34
:100214008BB95B9A000000005B9808958F939F93BD
:1002240087EE93E007D09F918F9100000000019723
:10023400A9F7089501970E942101E1F708950000AC
:0602440000000000089517
:00000001FF
