:020000020000FC
:020000002AC014
:100054003FC08FEF8DBF88E08EBF25E078948FEF8F
:100064008AB988277ED084E690E0D0D0A9D011E464
:1000740010937C001FE810937A00A2D088EE93E0DE
:10008400C5D010917A00106410937A00529FE02D2D
:10009400F12D629FF00DDF2FD695D69504E6E09FF3
:1000A400C12DF370F09FC00DC695C6958D2F16D047
:1000B4008A2F0E9479008EE20E94EE008C2F0ED0CF
:1000C400812F15D08A2F13D088EE93E09FD0D5CFFF
:1000D40050917800609179006BB918951127AA277F
:1000E4008A3018F08A501395FBCFA82F08958030DA
:1000F40021F480E30E94EE0033C0813021F481E3D7
:100104000E94EE002DC0823021F482E30E94EE00B2
:1001140027C0833021F483E30E94EE0021C08430A1
:1001240021F484E30E94EE001BC0853021F485E3B2
:100134000E94EE0015C0863021F486E30E94EE0092
:100144000FC0873021F487E30E94EE0009C0883095
:1001540021F488E30E94EE0003C089E30E94EE00CC
:10016400089588EC90E052D080E38BB95B9A00004C
:1001740000005B988AEF90E055D080E38BB95B9ADE
:10018400000000005B988AEF90E04CD080E38BB9CC
:100194005B9A000000005B988AEF90E043D080E215
:1001A4008BB95B9A000000005B988AEF90E03AD02C
:1001B40088E20CD08CE00AD003D086E007D0089502
:1001C40081E004D085E090E021D008955A980AD0C7
:1001D4008AEF90E027D008955A9A04D08AEF90E0ED
:1001E40021D008958F9399B19F70807F890F8BB927
:1001F4005B9A000000005B988F918295807F890F45
:100204008BB95B9A000000005B9808958F939F93CD
:1002140087EE93E007D09F918F9100000000019733
:10022400A9F7089501970E941901E1F708950000C4
:0602340000000000089527
:00000001FF
